:020000040000FA
:10000000020049C0E0C0D0E5D830E01A53D8FEE580
:100010000945086011A280B39280E50925FBF5FB34
:10002000E50835FCF5FCD0D0D0E0321200D6120045
:10003000FE12010212010612010A1200F91200DD7D
:100040001200E41200EB0200F2120058787FE4F68E
:09005000D8FD75810902005E2251
:10005B0002000312002BE4F508F509E58054FEFFBE
:10006B00E5A054012FFDE433FCE590540F7F00FE17
:10007B00EF2DFFEC3EAD07FCE4FBFAAF0374017E02
:10008B0000A807088005C333CE33CED8F9FFEE5C4A
:10009B00FEEF5D4E701CEB25E0FFEA33FE740E2F76
:1000AB00F58274013EF583E493F508740193F50929
:1000BB00800B0BBB00010AEB640C4A70BEEB640CAB
:1000CB004A7098F508F509D28080907597DE759780
:1000DB00AD2253F77F75DA492253F77F75DB082280
:1000EB0053F77F75DC082275E61075A88022C2DEF7
:1000FB00D2DE2275D4FF2275D50F2275E34022750F
:10010B00A9202201E801CC01B3019A0183016D0101
:0B011B005901460133012201120102CC
:00000001FF
